:040FF80000200700CE
:040FFC0000E007000A
:0200000270008C
:10200000000001205D230700452307004723070048
:10201000492307004B2307004D2307000000000061
:102020000000000000000000000000001D4E07003E
:102030005123070000000000532307005523070029
:10204000572307005723070057230700572307008C
:10205000572307005723070057230700572307007C
:10206000572307005723070057230700572307006C
:10207000572307005723070057230700572307005C
:10208000556F070057230700572307005723070002
:102090005723070057230700819D07005723070098
:1020A000572307005723070057230700572307002C
:1020B000572307005723070000000000000000001E
:1020C000572307005723070057230700572307000C
:1020D000ED680700572307005723070000000000A2
:1020E00000000000000000000000000000000000F0
:1020F00000000000000000000000000000000000E0
:1021000000000000000000000000000000000000CF
:1021100000000000000000000000000000000000BF
:1021200000000000000000000000000000000000AF
:10213000000000000000000000000000000000009F
:10214000000000000000000000000000000000008F
:10215000000000000000000000000000000000007F
:10216000000000000000000000000000000000006F
:10217000000000000000000000000000000000005F
:10218000000000000000000000000000000000004F
:10219000000000000000000000000000000000003F
:1021A000000000000000000000000000000000002F
:1021B000000000000000000000000000000000001F
:1021C000000000000000000000000000000000000F
:1021D00000000000000000000000000000000000FF
:1021E00000000000000000000000000000000000EF
:1021F00000000000000000000000000000000000DF
:10220000314932480A1A02D0072291438D4630499B
:1022100030480A1A06D00722914381F30988022226
:1022200082F314882C482D492D4A00F03CF82D48A3
:102230002D492E4A00F037F82D482E492E4A00F03D
:1022400032F82E482E492F4A00F02DF82E482F49FB
:102250002F4A00F028F82F482F49304A00F023F881
:102260002F483049304A00F01EF8304830490022EB
:1022700000F024F82F483049002200F01FF82F4AC0
:1022800090471F481F49884205D00268043003B4B4
:10229000904703BCF7E700208646EC46002000216B
:1022A000274A9047FEE7884207D0521A05D00378A4
:1022B00001300B700131013AF9D17047884202D0E8
:1022C00002700130FAE770470000012000F800209A
:1022D000000001200000012060D80700CC5700203A
:1022E00020580020BC230700BC23070000A30700E0
:1022F00060D80700CC570020CC57002000A407006E
:1023000000A4070000A4070000A4070000A4070021
:1023100000A4070000A4070000A4070060D807007D
:10232000B4D8070020580020205800202058002052
:102330002CA000202CA000202CA00020852307002A
:1023400041510700FEE7FEE7FEE7FEE7FEE7FEE796
:10235000FEE7FEE7FEE7FEE7704700BF1048804754
:1023600010484FF00701884385460F4880470F48C3
:10237000016841F470010160BFF34F8FBFF36F8FAD
:10238000FFF73EBF0A480B490B4A884207D0521A52
:1023900005D0037801300B700131013AF9D1704753
:1023A00059230700000001208D70070088ED00E030
:0C23B000ECA30700B8570020CC57002019
:1023BC007047000007B5044B0093044A402300F01B
:1023CC0032F803B05DF804FBDD2307002158002030
:1023DC002DE9F84389461446B2B10F4B0F4E032535
:1023EC00002743F00108224609EB0701002003F007
:1023FC002FFF0744241A48B933782BB14FF47A4095
:10240C00C047013D02D13570BDE8F883012333701C
:10241C00002CE8D1F8E700BF00A4070020580020EA
:10242C00704703F049BFF0B595B01C4616460846F8
:10243C000D4601F04AFD1A9B0D93CDE9086400246A
:10244C002346082205A928460A948DF82C400C94A2
:10245C0001F062FD079B0293069B03939DF81430D9
:10246C008DF8114003F00302012A1DD1BDF8144070
:10247C00059EC3F3C203C4F383148DF81030A2007D
:10248C0008230EA9284601F047FDC6F3952608AB94
:10249C000093224602AB0EA9304600F021FC2846E0
:1024AC0001F017FD15B0F0BD022AF8D1BDF81640A9
:1024BC00C3F3C203A4098DF810300827082C264654
:1024CC0028BF08263B4632460EA9284601F024FDBB
:1024DC00A41B08AB02AA31460EA8374400F064FCDA
:1024EC00002CEBD1DBE7000008B5FFF79AFF0421C5
:1024FC00064800F05FFB002803DA0549412000F094
:10250C00E3FD044B01225A7108BD00BFACA30700C8
:10251C0014A40700CC570020037813F0040216D043
:10252C0003F00303012B03D0022B09D001207047C9
:10253C000A6800880232C0F3831002440A60F5E78F
:10254C000B684288023303EB92130B60EEE71046E4
:10255C00704700002DE9F04F89B000230446851C1C
:10256C000DF10F000F4690468DF80F3000F040FD36
:10257C00484806683E60D0E90132134401339B1B86
:10258C00454E8246A6F10409A6F10807AB421BD3BF
:10259C000022B8F1000F77D0052363F3070264F330
:1025AC008912DAF80010DAF808309DF80F000B40A9
:1025BC0003330D444AF82320CAF8005000F048FDBC
:1025CC00012009B0BDE8F08F0121304600F069FE12
:1025DC00484600F07FFE384600F07CFEDAF8040036
:1025EC00DAF808B0049000EA0B0003300AEB800024
:1025FC0004A9FFF791FF03460498002BF3D10BEAD3
:10260C0000020AEB820200F1020CD2680592013042
:10261C0000EA0B0B0AEB8B0B02F00302012ACDF83C
:10262C0010C0DBF80C1026D0022A08D01B490193ED
:10263C004FF4BF7000F048FD019B9B4608E0BDF8CD
:10264C001620920903320CEB92024FEA114B0492C2
:10265C00384600F042FE10B1049BCAF804305946CB
:10266C00304600F01EFEDAE901231344DAF80020AC
:10267C0001339B1A8AE7BDF81430C3F38313634408
:10268C004FEA114B0493E3E7062363F3070264F369
:10269C009F5286E734590020506900207DA4070022
:1026AC000D4B0E4840F2FF3241F2180110B59A6002
:1026BC0000225A5041F21401C3E900225A5003F58A
:1026CC0081531A7001F0BAFB044610B9044801F0AA
:1026DC0037FC204610BD00BF3459002084A30700EE
:1026EC00D0A4070030B50A4C71B10A4A0A49121B32
:1026FC00D20800239A4201D1002030BD31F823507A
:10270C00854202D00133F5E7034654F83300F4E771
:10271C0014A3070084A30700B8570020094B013904
:10272C0003EBC000032909D8DFE801F00A02040614
:10273C00042070470079704740797047002070473B
:10274C000220704714A30700034BD3E90030C31ACF
:10275C0058425841704700BF345900202DE9F043CE
:10276C0087B0FFF7F1FF0646002840F00381824D49
:10277C0041F21803E850BFF34F8F6868AC680290C1
:10278C00204003307D4F05EB800002A9FFF7C4FE0B
:10279C00029B10B13A68002A61D004EA0302991C2A
:1027AC00013305EB8202234005EB8303D268DB681F
:1027BC00049302F00303022B0392029167D1BDF83C
:1027CC000E306F484FEA9318B8F1500FC14628BF2E
:1027DC004FF0500969F38F1309F10801ADF80E3071
:1027EC0001F044FB0746002800F0AE8001F06DFBC1
:1027FC0003A900230822384601F07AFB029924EA47
:10280C0001060136B600B1453AD95FFA89F9A6B38B
:10281C00F6B2A9EB0609214003315FFA89F4B146FF
:10282C00584E05EB810108234A46384601F060FBFF
:10283C0036B109F1080322463146384601F058FBFF
:10284C00029B08F1030803EB9803029341F218036F
:10285C00EB58002B4FD141F21003EC585EE02A6884
:10286C009A4204D86A60304607B0BDE8F08304EAA7
:10287C000300033005EB800087E742493446D2E77A
:10288C002140033108234A4605EB8101D5E7012B92
:10289C005AD1BDF80C303A48C3F38311062928BF2E
:1028AC00062161F3891302318900ADF80C3001F077
:1028BC00DDFA0746002847D001F007FB0023082269
:1028CC0003A9384601F014FB0026BDF80C20C2F316
:1028DC008312B300964203F10803B7D202994A1C43
:1028EC0021400331029205EB81010422384601F0AC
:1028FC00FFFA0136E9E7384601F0EBFAFFF724FF5F
:10290C0080F00100C6B2AEE7E3685B7923B12368BF
:10291C0039461B6820469847E3681C68002CF3D1A5
:10292C00384601F0D6FA0DF107008DF8074000F09B
:10293C005FFB41F21803EB580BB9029B6B609DF8DF
:10294C00070000F085FBD9E741F21003EC5854B9AD
:10295C000D4B0E480E49C01AC008000440F002008E
:10296C0000F084F8CAE7236820469B689847E36820
:10297C001C68ECE7002676E7345900204C690020EF
:10298C0084A307004059002014A3070014A30700D8
:10299C00DCA407002DE9F74F2E4D80460F469146DB
:1029AC0001A9012218461E46D5F808A0FFF7D2FD52
:1029BC0000283CD0019C0023A01CB34203EB000177
:1029CC003FD10021244800F036FC80F3100B234B40
:1029DC00234A4FEA18499B1AB9EBD30F04D3214968
:1029EC0040F2A31000F070FB631C03EA0A0305EB32
:1029FC00830349EA0B42DA6004EA0A03033315F84D
:102A0C00232068F3C50205F8232035F8232066F34C
:102A1C00891225F8232055F8232067F39F2245F8C7
:102A2C00232002F0F80242F0010205F823200E4B9D
:102A3C001B781BB1FFF792FE0028FBD103B0BDE859
:102A4C00F08F0AEA010105EB810159F82320CA60D5
:102A5C000133B2E7345900205069002084A30700E9
:102A6C0014A307007DA407005469002000231A4614
:102A7C00FFF790BF07B50123019201AAFFF78AFF68
:102A8C0003B05DF804FB07B5CDE9002302236A46C9
:102A9C00FFF780FF03B05DF804FB1FB5CDE9012300
:102AAC00069B039301AA0323FFF774FF05B05DF89F
:102ABC0004FB1FB5CDE90023069B0293079B0393F0
:102ACC006A460423FFF766FF05B05DF804FB7FB58B
:102ADC00CDE90123089B0393099B04930A9B05935F
:102AEC0001AA0523FFF756FF07B05DF804FB0000B1
:102AFC002DE9F34780462C4CD01C8A46174601A979
:102B0C0000228008A568FFF725FDC8B3DDF8049006
:102B1C00A66809F10200019001362840361AB60069
:102B2C000330B74204EB800034D83A46514607F0E4
:102B3C0033FB00211D4800F07EFB80F3100009F1EF
:102B4C0001032B4004EB83034FEA184242EA004294
:102B5C00DA6005EA0903033304EB830214F823104B
:102B6C0068F3C50104F82310518867F38F11518065
:102B7C0034F8232002F0380242F0020224F8232019
:102B8C000B4B1B781BB1FFF7E9FD0028FBD102B002
:102B9C00BDE8F0873246514607F0FEFABA1B0AEB45
:102BAC00060104F10C00C2E73459002050690020E2
:102BBC005469002030B541F210030F49CA58002364
:102BCC00144644B9C46823715AB941F210054851EE
:102BDC002260184630BDE46825799D4206D02468F1
:102BEC00EFE7D268116821601060F2E701330A2B1D
:102BFC00E6D14FF0FF33ECE73459002038B541F201
:102C0C001002094B9C5803F58152012313701D4689
:102C1C0004B938BDE3685D71236820465B6898474A
:102C2C00E3681C68F4E700BF34590020037A052BD5
:102C3C0010B50C460FD0437A23B1084A08492046F8
:102C4C0000F0F6FB0749204600F0F2FB2046BDE8F9
:102C5C00104000F0DBBB002AF8D0F3E727A50700F3
:102C6C0098CC070049A50700C38873B504460D46E8
:102C7C0033B1144A00921449144A284600F0D8FB88
:102C8C00217A05291CD0637A4BB1A088FFF746FD49
:102C9C000F4B104953F82020284600F0C9FB227A2C
:102CAC000D4BA08853F822600021FFF71BFD0B4948
:102CBC0003463246284602B0BDE8704000F0B8BB6F
:102CCC0002B070BD27A5070034A507002CA507008E
:102CDC00F4A4070098CC070058A507004CA50700E2
:102CEC002DE9F04385B01F460C9D002306460C468B
:102CFC00904695F80C902B7329463846FFF7B4FF95
:102D0C00B8F1060F09D8DFE808F00412181F2833B1
:102D1C0040003146284600F08BFB002229463846FD
:102D2C00FFF784FF85F80C9005B0BDE8F0832268AE
:102D3C003146284600F07CFBEFE7D4E9002331460E
:102D4C00284600F075FBE8E7A36800933146D4E908
:102D5C000023284600F06CFBDFE7E3680193A368CF
:102D6C0000933146D4E90023284600F061FBD4E7F8
:102D7C0023690293E3680193A36800933146D4E975
:102D8C000023284600F054FBC7E7636903932369CB
:102D9C000293E3680193A36800933146D4E90023BE
:102DAC00284600F045FBB8E708292DE9F84F804686
:102DBC000E4617461C463AD8002593F80C901D7306
:102DCC0019461046FFF750FFDFF884A0DFF884B0F7
:102DDC00AE422ED918F805205946204600F028FBA3
:102DEC000135082DF4D11849DFF86CB0204600F0FD
:102DFC001FFB4FF0000A564520D918F80A507E2DBB
:102E0C0003D8284607F088F900B92E252A465946DA
:102E1C00204600F00DFB0AF1010ABAF1080FEAD1C5
:102E2C00012221463846FFF701FF84F80C90BDE8DB
:102E3C00F88F5146204600F0FBFAD1E703492046B3
:102E4C0000F0F6FAE7E700BF22A5070020A507006F
:102E5C001EA5070018A5070024A507004B1C30B5BC
:102E6C00DB00044612F003009BB20DD1074D2A6023
:102E7C001A44074B1A60074B1870074B1870074B16
:102E8C001C80074B198030BD0720FCE7F869002037
:102E9C00F4690020F0690020006A0020FC69002021
:102EAC00FE6900202DE9F3472B4D2B888B420646FB
:102EBC000C4617464CD34FF000080DF107008DF867
:102ECC00078000F095F8254B254A18781178CBB27D
:102EDC00244909888B4238BF0133C0B238BF5FFA2E
:102EEC0083F840452ED092F800801378DBB29942DB
:102EFC0086BF0133DBB2002313709DF8070000F08E
:102F0C00A7F84FF6FF73984524D0DFF860A0DAF8E5
:102F1C0000304FEAC80903EB090243F83870A6B138
:102F2C009CB1114B28881B68224608FB00303146A7
:102F3C0007F032F9DAF800304B4400209C8002B0E4
:102F4C00BDE8F0874FF6FF78D7E700209080F6E7D2
:102F5C000920F4E70420F2E7FC690020006A002055
:102F6C00F0690020FE690020F4690020F869002057
:102F7C00F8B5124C124D264622782B789A4200D185
:102F8C00F8BD23780F48104A078812680F48DBB247
:102F9C0019B202EBC10C006852F83120BCF80410D5
:102FAC0003FB070090470A4A23781288DBB29A4247
:102FBC0086BF0133DBB200233370DDE7006A0020EB
:102FCC00F0690020FC690020F8690020F4690020F9
:102FDC00FE690020EFF30583C3F308032BB9EFF36D
:102FEC001480C04300F001007047012070470000BE
:102FFC0070B50446FFF7EEFF012803D010494320BB
:10300C0000F062F8EFF3108672B60E4A9068012356
:10301C0098B993600C4B0D4DD3F88010294011607A
:10302C00C3F88050D3F8841051604FF0FF32C3F8CE
:10303C008420207006B962B670BD2370FAE700BF19
:10304C00BDA50700046A002000E100E0FC06FFBDFE
:10305C0010B50446FFF7BEFF012803D009495120E3
:10306C0000F032F8084B9A685AB154B9EFF310815A
:10307C0072B6064A18681060586850609C6001B9B6
:10308C0062B610BDBDA50700046A002000E100E097
:10309C0030B53AB11368DB430A4D0144814204D187
:1030AC00D84330BD4FF0FF33F6E710F8012B5340F7
:1030BC00082213F0010418BF2C46013A84EA53038A
:1030CC00F7D1EBE72083B8ED07B5ADF8000001911F
:1030DC006A46002144F2020002F002F803B05DF8E7
:1030EC0004FB10B561B1B2FBF3F403FB1424A4B2DE
:1030FC0044B9C0E9001484608281C381204610BDAC
:10310C000E20FCE70920FAE782B050E8022FC188B4
:10311C00B2EB324F4FF0000317BF92B241EA0141BC
:10312C0042EA014104E04268B2EB324F08BF01238E
:10313C0040E80212002AE8D18DF807309DF80730DC
:10314C00002B0CBF1120002002B0704737B550E89F
:10315C00013F9DB2C48925448489A54228BF2D1BFB
:10316C000489A54202BFBFF32F8F002207E0C5EAF6
:10317C00030540E80154002CE9D14FF001028DF811
:10318C0003200193019B9DF803200B6002F0FF03C9
:10319C0022B10B880068184403B030BD1846FBE719
:1031AC000A884B889A4209D150E8012FC2EA0242A0
:1031BC0040E80123002BF7D1012070470020704715
:1031CC0037B550E8023F1FFAA3F5C488A54202BFE9
:1031DC00BFF32F8F00220DE0C48925448489A542BA
:1031EC0028BF2D1BC3EA054540E80254002CE8D14A
:1031FC004FF001028DF803200193019B9DF80320F1
:10320C000B6002F0FF0322B14B880068184403B036
:10321C0030BD1846FBE70A884B889A4209D150E822
:10322C00022FC2EA224240E80223002BF7D10120F0
:10323C0070470020704750E8002F0B4640E8003CD8
:10324C009CF0000FF7D11046704750E8002F42EA6F
:10325C00010340E8003C9CF0000FF6D1104670478B
:10326C0050E8003F43EA010240E8002C9CF0000FBC
:10327C00F6D11046704750E8002F02EA010340E8EF
:10328C00003C9CF0000FF6D11046704750E8003F10
:10329C0003EA010240E8002C9CF0000FF6D1104626
:1032AC00704750E8003F03EB010240E8002C9CF013
:1032BC00000FF6D11046704750E8003FA3EB010217
:1032CC0040E8002C9CF0000FF6D11046704701210D
:1032DC00FFF7BBBF0121FFF7C3BF0021FFF7CBBF37
:1032EC000021FFF7D3BF000010B50446002834D0EE
:1032FC0003681BB91A49FF20FFF7E6FE636823B980
:10330C0017494FF48070FFF7DFFEA36823B9144907
:10331C0040F20110FFF7D8FEE36823B910494FF4CF
:10332C008170FFF7D1FE238A23B90D4940F20310B7
:10333C00FFF7CAFED4E9012321689B1ADBB20A60AD
:10334C00013BDBB2FF2B226802D10020107110BDB3
:10335C001168481C10600B70F2E70E20F7E700BFF5
:10336C0015A6070037B5054620B913494FF49270DE
:10337C00FFF7AAFE00240DF107008DF80740FFF7B8
:10338C0037FE2A686B68116899420ED9481E106086
:10339C0011F8014CEB68298A01FB0434AB681179F4
:1033AC001B1ADBB2994238BF13719DF80700FFF767
:1033BC004FFE204603B030BD15A6070037B50C46AE
:1033CC00054620B9104940F24710FFF77DFE24B99D
:1033DC000D494FF4A470FFF777FE00230DF10700A1
:1033EC008DF80730FFF704FE2A681368591C11602A
:1033FC00EA68A41A2A8AB4FBF2F41C709DF8070040
:10340C00FFF726FE03B030BD15A6070010B5044625
:10341C0018B906493120FFF757FEA2682AB1636933
:10342C002168206998470023A36010BD5FA60700A0
:10343C000EB433B5059D044618B911494220FFF767
:10344C0043FE63691BB90E494320FFF73DFE236819
:10345C001BB90B494420FFF737FE63681BB90849B9
:10346C004520FFF731FE35B106AB01AA29462046AF
:10347C00019300F06FF802B0BDE8304003B0704724
:10348C005FA60700826830B40468551C8560A1549F
:10349C00D0E901329A4202D330BCFFF7B7BF30BC3F
:1034AC00704700002DE9F84F9946DDE90A431746AD
:1034BC00824688460A460126BA420FD24E4538BF8C
:1034CC004E4613F0010B01D164B900240125B9F16A
:1034DC00010F1AD909F1FF397D43F8E7B2FBF7F276
:1034EC000136E9E79B070ED5B9F1000F0CBF30256B
:1034FC002025A642EAD2013C29465046FFF7C2FFDE
:10350C00002CF6D1E1E72025F3E7B8FBF5F39F4259
:10351C00E2D9DFF83C90B8FBF5F3504619F80310EC
:10352C0005FB1388FFF7AEFFB5FBF7F3BD4207D2DF
:10353C00BBF1000F02D00CB1A64203D3BDE8F88F4B
:10354C001D46E8E720215046013CFFF79BFFF2E7C0
:10355C009FA607002DE9F74F88461746054620B968
:10356C00A8494FF4A270FFF7AFFD6B6923B9A549C9
:10357C004FF4A370FFF7A8FD2B6823B9A14940F2C3
:10358C004710FFF7A1FD6B6823B99E494FF4A47057
:10359C00FFF79AFDB8F1000F00F0308118F8011B0D
:1035AC0049B92B7B002B00F02981284603B0BDE8DC
:1035BC00F04FFFF72BBF252940F0C080002698F86C
:1035CC0000302D2B424608F1010823D0302B24D09B
:1035DC002B2B25D000242A2B02F1010123D13B688F
:1035EC001A1D1B683A601C440A4613782E2B26D1F0
:1035FC0001324FF00009104610F8011BA1F1300CFC
:10360C00BCF1090F1DD80A2303FB0913A3F13009E0
:10361C000246F0E746F00106D1E746F00206CEE797
:10362C0046F00406CBE711F8013CA3F13000092861
:10363C00DBD80A2202FB0434303C0A46CBE74FF0BD
:10364C00000912F8011B01F0FB0068289046F8D025
:10365C0069290ED04AD8582964D006D825296DD0AE
:10366C0098F80030002B99D19BE7632962D064292C
:10367C00F6D13A68D2F800A0111D8AEAEA723960D4
:10368C00A2EBEA724FF0010B092A5BDCCB4538BF89
:10369C00CB462CB1BAF1000F01DB720700D5013C0F
:1036AC00B30702D5B9F1000F04D0F00702D4002CF7
:1036BC004ED10024BAF1000F52DACAF1000A2D21C2
:1036CC002846FFF7DFFE06F00302022A05D1B9F106
:1036DC00000F02D1002C47D10024CDE900464B4607
:1036EC000A2251462846FFF7DDFEB9E773294CD074
:1036FC0014D87029B4D13B681A1D3A603021284681
:10370C001C68FFF7BFFE78212846FFF7BBFE00229E
:10371C000823CDE9003221461022E3E775292BD08E
:10372C0078299DD139680A1D3A60CDE900464B468F
:10373C00102228E03B681A1D19783A602846FFF7DA
:10374C00A1FE8DE70A230BF1010BB2FBF3F29BE711
:10375C00A345AFD220212846013CFFF793FEA6E7F4
:10376C007107B0D52B21ABE7A345B6D23021284643
:10377C00013CFFF787FEADE73968CDE900460A1D2D
:10378C003A604B460A220968ACE73B681A1D3A605E
:10379C0016F00106D3F800A020D1BAF1000F03D027
:1037AC00504606F077FD0646B44200D9C4B90AF17A
:1037BC00FF3A1EE028460136FFF764FE1AF80610A1
:1037CC000029F7D1A642BFF44BAF002C3FF448AF11
:1037DC0020212846013CFFF755FEF3E70026EDE7D4
:1037EC0020212846013CFFF74DFEDDE72846FFF778
:1037FC0049FE1AF8011F0029F8D131E703B0BDE8E2
:10380C00F08F00BFAFA6070070B50D4616460446F4
:10381C0018B908495520FFF757FC1DB90549562022
:10382C00FFF752FC25602B6831462046BDE87040FE
:10383C00184700BFF6A607002DE9F041DDF8188007
:10384C000E4617461D46044618B922498820FFF734
:10385C003BFC1FB91F498920FFF736FC23681BB9B5
:10386C001C498A20FFF730FC45BB1A498B20FFF717
:10387C002BFCB20703D017499120FFF725FCBB079F
:10388C0003D014499220FFF71FFCE3689E4204D337
:10389C00731E22692B44934203D90E499320FFF7E0
:1038AC0013FC2368CDF81880D3F80CE03A462B466D
:1038BC0031462046F446BDE8F041604763685A68DB
:1038CC00B5FBF2F302FB1353002BD2D001498E202F
:1038DC00CDE700BFF6A607002DE9F0410D461646D0
:1038EC001F46044618B919499E20FFF7EDFB2368C3
:1038FC001BB916499F20FFF7E7FB1EB91349A020FF
:10390C00FFF7E2FB63681B68013B2B4203D00F49B6
:10391C00A320FFF7D9FBE3689D4207D363681B68BC
:10392C006A1E03FB06232269934203D90749A82088
:10393C00FFF7CAFB2368D3F810E032463B46294612
:10394C002046F446BDE8F041604700BFF6A60700EC
:10395C0070B508B10368ABB90C4D0D4C0026641B57
:10396C001423B4FBF3F4B44201D1002009E02B681A
:10397C0013B901361435F6E7DB6928469847002859
:10398C00F7D070BDDB69BDE870401847B857002010
:10399C00CC570020014B43600020704754A7070010
:1039AC000846704700207047024B1868003018BF5B
:1039BC0001207047106A002008B50248FFF790FC00
:1039CC00002008BD106A002008B510461A4606F003
:1039DC00E3FB002008BD00002DE9F043814687B0D1
:1039EC0014480F4616469846FFF771FC0446F0B98A
:1039FC000546AE4215D10F48FFF772FCD9F80830D6
:103A0C005BB102228DF800200022CDE90127CDE91F
:103A1C000326CDF8148068469847204607B0BDE8C9
:103A2C00F08307EB053000F06DFC0135E1E7112464
:103A3C00F3E700BF106A00202DE9F041804686B004
:103A4C0011480F4616461D46FFF741FC0446C8B9FF
:103A5C00AA083146384600F06DFC0B48FFF740FCD5
:103A6C00D8F8083053B101228DF800200C9A059239
:103A7C00CDE90147CDE9036568469847204606B075
:103A8C00BDE8F0811124F9E7106A002029DF7047A6
:103A9C0028DF704770B503689D6886B004460E46F3
:103AAC006DB114220021684606F09FFBA3680593B4
:103ABC00237901962BB1012B0DD06846A84706B08F
:103ACC0070BD01238DF8003023690293E3680393E2
:103ADC0063690493F1E702238DF80030E3681B035C
:103AEC000293F5E70846704700207047024B187A9E
:103AFC00003018BF01207047006C0020034B187A6F
:103B0C000122B0FA80F05A7440097047006C002012
:103B1C0008B510461A4606F03FFB002008BD000011
:103B2C0008B514220021044806F05FFB0348FFF798
:103B3C00EBFA002008BD00BF006C0020F06B0020E9
:103B4C0010B5094C094B43602046FFF7C0FB48B940
:103B5C0006F0F6F81C2320744FF4EE720449054865
:103B6C00FFF7BFFA002010BD006C002080A70700F3
:103B7C00146A0020F06B002070B5234C234E237A7E
:103B8C0025463BB922492348FFF71AFB306008B998
:103B9C00606070BD346802232B72237973B1012BE2
:103BAC0022D020460321FFF775FF00232B726B6098
:103BBC0017491848BDE87040FFF72DBBD4E9052321
:103BCC00D21A142A28BF1422D4E903109208012A0D
:103BDC0038BF012219441844FFF758FF50B111287F
:103BEC00DFD101232B72D4E7D4E903031844FFF788
:103BFC004FFFF3E72B7C002BCBD10146BDE8704087
:103C0C00022000F009B800BF006C0020186C0020E6
:103C1C00146C0020F06B002038B5831E012B43D8A8
:103C2C00224C237A002B3FD0022B09D103282ED013
:103C3C001F4B1B680022E2601A793AB1012A20D08E
:103C4C00637C6BBBBDE83840FFF796BFD3E9051228
:103C5C008D1A142D94BF521914329A619142EFD1DE
:103C6C0002284FF0000308BF19462372104B18BFEF
:103C7C000D211868FFF70EFF0E490F48FFF7CBFA1E
:103C8C00DEE71A6901321A615B699A42E7E7E36879
:103C9C000133082B01D8E360D2E70023E360DFE7B0
:103CAC00BDE8384006F03CB838BD00BF006C0020C1
:103CBC00186C0020146C0020F06B002000F0FD0349
:103CCC00012B08D1044B00225A74421E5042504121
:103CDC001874FFF751BF7047006C002010B5064CEC
:103CEC00201DFFF7F4FA28B9637C1BB9BDE810401E
:103CFC00FFF742BF10BD00BF006C00202DE9F3415F
:103D0C0080460D460F4801A916461F46FFF71EFABE
:103D1C000446A8B11C22002106F067FA2D0B0123E2
:103D2C00237101A9C4F80080A760E56066610548AD
:103D3C00FFF736FAFFF7D2FF002002B0BDE8F081A2
:103D4C000420FAE7F06B00202DE9F7438146884602
:103D5C00104801A917461E46FFF7F8F90446B0B102
:103D6C001C22002106F041FA00250A9BA36001A940
:103D7C002571C4F80090C4E9037866610548FFF723
:103D8C000FFAFFF7ABFF284603B0BDE8F083042021
:103D9C00FAE700BFF06B00202DE9F74F99469DF82C
:103DAC003030019388461746054618B92249B6208B
:103DBC00FFF78AF9EA8895F805B00BFB02FBABF12B
:103DCC00040BCB4503D81C49C420FFF77DF93E6892
:103DDC00B5F806A006EB09025A4509F1040188BFA3
:103DEC00ABEB0906B1FBFAF43E600AFB141144B9C3
:103DFC00AAEB0107B74228BF37462EB903B0BDE87E
:103E0C00F08F2D68013CF2E7019A043108EB0403B2
:103E1C00681872B101463A461846F61B06F0BCF912
:103E2C00B2453C442D6857464FF0000128BF374639
:103E3C00E3E73A461946F0E7ACA70700FFF754BA98
:103E4C00F8B546790146721E0546002393422D684B
:103E5C0003D30024A64202D8F8BD0133F6E70F685D
:103E6C002846FFF7ABFA01343946F3E72DE9F8435E
:103E7C00068ACD1C0746FFF775FA043E3544044606
:103E8C00B5FBF6F5F0B14FF48073EDB28380C680CC
:103E9C00013D076081464FF00008A84512D2384614
:103EAC00FFF760FA064648B163790133637108F194
:103EBC000108C9F8000007608146EEE72046FFF7CD
:103ECC00BFFF34462046BDE8F88301210430FFF7DC
:103EDC00E8B910B5012104460430FFF7EDF910F0F4
:103EEC00FF0F04D12046BDE81040FFF7A9BF10BD5D
:103EFC001FB5144603920022009203AAFFF74CFF51
:103F0C00039BA34203D00349F620FFF7DDF804B06E
:103F1C0010BD00BFACA707001FB5144603920122C9
:103F2C00009203AAFFF738FF039BA34204D0034976
:103F3C004FF48070FFF7C8F804B010BDACA70700B1
:103F4C00836800225A609A60C3E90422DA601A601E
:103F5C007047000038B50D46044618B90949502081
:103F6C00FFF7B2F81DB907495120FFF7ADF82B68E0
:103F7C006A686360934208BF0023256008BF6360D2
:103F8C0038BD00BFF6A7070010B5044618B90B4999
:103F9C006320FFF799F823681BB908496420FFF7E1
:103FAC0093F8636843B12268916852680B4493425A
:103FBC00636004BF0023636010BD00BFF6A7070059
:103FCC0010B50D49A1F59472914201D800200FE073
:103FDC008B1ADB1003EBD3735B1002EBC30452F8A8
:103FEC003330834205D802D204F10802ECE7606852
:103FFC0010BD2146E8E700BF94A9070008B5FFF7FC
:10400C00DFFF024B002808BF184608BD59A807005F
:10401C002DE9F04FC9B008AA01F1400514464B78C0
:10402C000E781B0443EA0663CE7833438E78043152
:10403C0043EA06238D4244F8043BF0D11024916BE3
:10404C0016464FEAF14383EA714383EA9123716A7E
:10405C00366852F8045F31440B444FEAB54181EAAB
:10406C00F51181EAD50101340B44402CD363E6D120
:10407C00D0E914E30093836D0193C36D0293036E37
:10408C000393436E0493836E0593C36E0693DDE92D
:10409C00057BDDE9031CDDE901592B4B009E0793E1
:1040AC0074464FF00008079B53F8042B07934FEA14
:1040BC00F12383EAB11383EA716A08AB53F8283011
:1040CC001A440AEB020327EA010A01EA0C028AEA03
:1040DC0002021A444FEA743A86EA05035A448AEA01
:1040EC00B40A06EA050B234083EA0B038AEAB45AA6
:1040FC0008F101089A44B8F1400F02EB0903BB46E2
:10410C005244A94619D172440265009A2244426570
:10411C00019A32448265029A2A44C265039A1A446F
:10412C00049B02660B444366059B63448366069BB3
:10413C003B44C36649B0BDE8F08F674635468C46B4
:10414C00264619461446AEE750AD070030B5E0B12F
:10415C000F4A104900240025C0E91245C0E9141289
:10416C000D4C0E4A0E4DC0E916420E4AC0E91852CB
:10417C000D4A826602F17452A2F523020023A2F6C4
:10418C0092420364C266184630BD0E20FCE700BFA5
:10419C0085AE67BB67E6096A72F36E3C3AF54FA5CC
:1041AC007F520E518C68059BABD9831FF8B5044622
:1041BC00F0B10AB90020F8BDD1B10D468E18002718
:1041CC00B542F7D0236C15F8012BE2540133402B88
:1041DC002364F5D121462046FFF71AFFD4E91231AA
:1041EC0013F5007341F10001C4E912312764E7E7CC
:1041FC000E20E0E770B50D4616460446002877D031
:10420C00002975D0026C8021372A02F101038154F8
:10421C004FF0000242D8382B3BD1D4E91223206C4A
:10422C000821E1FB0023104612BAE2631A0A194670
:10423C0084F83B3084F83A201A0C1B0EC4E91201A6
:10424C0084F83920214684F838302046FFF7E0FE08
:10425C00691E76B30023E26EDA4001F8012FA26EDC
:10426C00DA400A71626EDA400A72226EDA400A7320
:10427C00E26DDA400A74A26DDA400A75626DDA40BA
:10428C000A76226DDA400833202B0A77E3D100201E
:10429C0070BDE2540133BEE7E25401333F2BFBD92E
:1042AC0021462046FFF7B4FE3822002105F09DFF81
:1042BC00B3E71823226DDA4001F8012F626DDA4062
:1042CC000A71A26DDA400A72E26DDA400A73226E4C
:1042DC00DA400A74626EDA400A75A26EDA400A7627
:1042EC00E26EDA40083B13F1080F0A77E2D1CEE711
:1042FC000E20CDE7024AD2F80034002BFBD07047D9
:10430C0000E001400A4908B50223C1F80435BFF3A7
:10431C006F8FBFF34F8FC1F80805FFF7EBFF00233A
:10432C00C1F80435BFF36F8FBFF34F8F08BD00BFCB
:10433C0000E001400E4B10B50124C3F80445BFF357
:10434C006F8FBFF34F8F01EB8204401AA14208D14B
:10435C00074B0022C3F80425BFF36F8FBFF34F8FB9
:10436C0010BD431851F8042B1A60FFF7C3FFEDE79B
:10437C0000E0014043689B68184708B54368083063
:10438C005A7900F069FE002008BD2DE9F0430D4676
:10439C009BB0084699469046FFF7ECFF6E6874791F
:1043AC004C4528BF4C4607462246414602A800F021
:1043BC0037FE727922990AA800F04EFE00970AABDC
:1043CC00224602A905F1080001F05AFD002848F226
:1043DC00425018BF00201BB0BDE8F0830023C0E999
:1043EC0002328B881A44B1F9063002611A44C0E9D2
:1043FC00001142610888003018BF012070474268E4
:10440C00118838B50346002937D0148A02F11001FF
:10441C0041602CB9C2680168FFF7E0FF204638BD47
:10442C009078118900F03005302D14D1947C04F073
:10443C003004302C1BD190881969091A196100219C
:10444C00908AB2F916200844196901441961114483
:10445C0059610120E3E700F0F004202C07D15089CA
:10446C004143002DECD1986801309860E8E700F0EA
:10447C00C000802808BF0421F3E70846CFE770B5D9
:10448C00456804460E4663681A88B24204D19B788C
:10449C0003F00F03082B07D12046FFF7B0FF63682A
:1044AC00AB42F0D1002070BD0120FCE743681A44F8
:1044BC00426011B101399A4201D10120704713F8C1
:1044CC00010B01F8010FF6E783682DE9F34104466F
:1044DC00884623B90027384602B0BDE8F08103684E
:1044EC0001220DF10701984707460028F2D0A36876
:1044FC009DF80750013B2A06A3601AD505F07F05ED
:10450C000726A368002BE5D0236801220DF10701D3
:10451C00204698470028DDD0A3689DF80720013B72
:10452C00A36002F07F03B3401D43130606F1070698
:10453C0002D4C8F80050CEE7232EE2D1CAE770B5FA
:10454C004568AA7802F00F06082E86B003461FD1E4
:10455C0003691C6800260CB906B070BD236862683C
:10456C009D68267329466846FFF738FF63680493F5
:10457C0004F10C030593AB7803F0C003802B08BF48
:10458C00231D684608BF0493FFF7D9FFA468E2E730
:10459C0012F0C0011CD102F0300010280AD15A6967
:1045AC001170072EEC68186909D10146204600F0FD
:1045BC0017F8D1E79006F4D55B691980CCE72A8906
:1045CC00214614B105F0E8FDC6E705F00EFEC3E781
:1045DC008029C1D10069002192060160BCD5EBE7AE
:1045EC007FB50A4601466846FFF7F8FE30B16846CB
:1045FC00FFF7A5FF6846FFF702FFF7E707B05DF886
:10460C0004FB000030B5044685B01546A9B9026814
:10461C00114B9A4211D0102D06D82A4669462046D5
:10462C00FFF7F0FF05B030BD102269462046FFF7BA
:10463C00E9FF0028F6D0103DEDE7A368AB4201D2AC
:10464C000020EFE723682A46204698470028F7D039
:10465C00A3685D1BA560E5E7B9440700F7B50E46F6
:10466C0001A907461546FFF72FFFA8B1019A0123B0
:10467C00D3184FF0000404D2B17801F0C0018029A6
:10468C0001D1204608E031899942FAD329463846AF
:10469C00FFF7B8FF019BEC5403B0F0BD73B50E46A9
:1046AC0001A905461446FFF70FFFB8B1019BB3F5FE
:1046BC00803F07D202229A1804D2B17801F0C001CF
:1046CC00802901D1002009E031899142FAD3214699
:1046DC001A4621F8023B2846FFF794FF02B070BD42
:1046EC0010B5034C82600022C0E90041C26010BDCD
:1046FC00B94407002DE9F3470025064688462F46A6
:10470C002C46B36843B3336801220DF107013046E0
:10471C00984708B3B3689DF807C0013B0CF07F02C3
:10472C005FFA82F9C4F12001B360A4F1200309FA05
:10473C0003F329FA01F109FA04F20B431CF0800F80
:10474C0045EA020547EA030704F1070402D1C8E968
:10475C00005702E0462CD4D1002002B0BDE8F0870F
:10476C0073B50C4669461646FFF7C4FF68B123893A
:10477C00082B0CD1DDE90045C6E90045DDE9002335
:10478C00AB4206BFA2420120002002B070BD042B38
:10479C0004D1009B33601C460025EFE7022B4FF041
:1047AC00000004D1009B33809CB20546E6E7012B48
:1047BC00EBD1009B337003F0FF04F6E737B50D46E1
:1047CC0069461446FFF796FF30B12A89082ADDE9BD
:1047DC00003103D1C4E9003103B030BD042A1846BE
:1047EC004FEAE37108D123601A460B468B4206BF91
:1047FC00824201200020EFE7022A04D11BB2238061
:10480C001AB2D317F2E7012A03D15BB223705AB262
:10481C00F7E70020E0E7F7B50C460021197021708E
:10482C00116001A9074615461E46FFF74DFE30B92B
:10483C00BB6813B901233370002003B0F0BD01999C
:10484C000029F7D0CB0801F007012B602170F4E7A9
:10485C0013B5044605291FD8DFE801F0030F151E18
:10486C001E1C012201A92046FFF7CCFE18B19DF9B0
:10487C000430002BF5DB02B010BD082200212046CD
:10488C00FFF7C0FEF7E701A9FFF71EFE0028F2D0E4
:10489C00019AF3E70422F1E70020ECE773B50D462B
:1048AC0001A90446FFF710FE064618B9002630464B
:1048BC0002B070BD94E80F0085E80F0001998A42A0
:1048CC00F4D3A960A3685B1AA360F0E72DE9F04369
:1048DC005568AB7813F0C00489B006468C46174671
:1048EC0003D0402C67D000240AE003F00F025D498E
:1048FC0003F03003102B51F822801BD004D8E3B105
:10490C00204609B0BDE8F083202B1BD0302BF7D10B
:10491C007B6929881980072A09D121462A89386997
:10492C0005F063FC7B683969D868FFF759FE3A6972
:10493C0079683EE07B6901221A703A692946C047C2
:10494C000446DDE7BCF1020FD7F8149024D1042AF9
:10495C0022D804A9FFF7A2FF04460028C3D0069B67
:10496C002BB17968B9F800304A899A4205D8059B71
:10497C007360069B002BC3D0B5E708893A6903FB2B
:10498C00002204A8C04728B1B9F800300133A9F8B7
:10499C000030E4E70446EAE7B9F800306A899A4245
:1049AC00A1D929893A69581C03FB0122A9F80000F6
:1049BC0029463046C3E7D2F81080454655F8043BEB
:1049CC0013B9FFF745FFBBE7022914D104A9FFF780
:1049DC0065FF002887D0D8F8003079682A4604A8EB
:1049EC009847044600283FF47EAF069B002BF2D17B
:1049FC00059B736084E701292BD04CB24CB105297F
:104A0C007FF471AF04220DEB0201FFF7FBFD0424D0
:104A1C0024E00DF1040901340B2C3FF464AF0122A6
:104A2C0049463046FFF7EEFD00283FF45CAF19F91C
:104A3C00013B002BEFDB0C4B049301ABCDE90534B0
:104A4C00002307932A46D8F80030796804A89847C1
:104A5C0076E7082201A9FFF7D5FD08240028EAD142
:104A6C0041E700BF5CAE0700B94407002DE9F04FE9
:104A7C0091B00446002604A8CDE90266FFF7AEFC0F
:104A8C00A3683BBBDDE9053404A89D78FFF7B7FCB0
:104A9C000028F7D115F0300F03D1059B1B8803B10B
:104AAC000134002C00F0A9806309002202A9934272
:104ABC0040F09C8010AA02EB830304F01F04C4F1A5
:104ACC0020044FF0FF3053F8383CE040C31A5842F2
:104ADC0058410DE00DF1030301AA0DF1020120462E
:104AEC00FFF799FE38B99DF80330002BCAD100208E
:104AFC0011B0BDE8F08F019904A8FFF7C0FC0028A5
:104B0C0050D1019BB3427DD3059D059A937803F058
:104B1C000F03082B7FD004A8FFF771FC059B9D4267
:104B2C00F3D14FF0FF36019FB7426BD3089B9DF832
:104B3C000290D4F808801D684FF0010AA368002D7C
:104B4C005DD098459CD12B68D3F800B0BBF1000F19
:104B5C0008D04B463A4629462046D8470028C6D0AE
:104B6C00AD68EBE7D3F808B0BBF800309F42F7D143
:104B7C006A6859460AA8FFF731FC6B680E9305F179
:104B8C000C030F939BF8023003F0C003802B04BF7F
:104B9C002B1D0E930AAA85F80CA049462046FFF758
:104BAC0095FEDBE7059B9B7813F0300F0FD1069A2F
:104BBC003F2A0CD8510910AB03EB810102F01F0204
:104BCC000123934051F8382C134341F8383CE568E5
:104BDC002DB104AB9DF8022001992046A84704AAE8
:104BEC009DF802102046FFF771FE10E051F822509C
:104BFC0001357FF47DAF013259E7012078E7984504
:104C0C007FF43EAF9DF802102046FFF721FE0028EE
:104C1C007FF436AF6BE7168885E770B50C46064611
:104C2C00154611462046FFF7DBFC2A462146304646
:104C3C00BDE87040FFF71ABFF0B585B00C46CD68E3
:104C4C00694607461646FFF729FE68B1E06858B179
:104C5C00A37803F03003202B32462946684605D151
:104C6C00FFF7DBFF019B7B6005B0F0BDFFF7FEFE9D
:104C7C00F8E7D3B50C466946FFF73CFD80B1DDE99A
:104C8C00001300274A0801F0010642EAC37256EAF3
:104C9C0007014FEA53031CBFD243DB43C4E9002393
:104CAC0002B0D0BD37B50D4669461446FFF7E1FF9B
:104CBC0068B12B89082B0CD1DDE90001C4E9000196
:104CCC00DDE900238B4206BF82420120002003B0A5
:104CDC0030BD042B03D100982060C117F0E7022BE4
:104CEC0004D1BDF90000208000B2F6E7012B04D1FD
:104CFC009DF90000207040B2EFE70020E7E713B504
:104D0C0004220C460DEB0201FFF77CFC08B1019B61
:104D1C00236002B010BD1146FFF7F1BF13B5082296
:104D2C000C466946FFF76EFC18B1DDE90023C4E9B7
:104D3C00002302B010BD1146FFF7F0BF38B1054B90
:104D4C000360054B436001230372002070470E2063
:104D5C00704700BF8F4D0700694D070069B10B7894
:104D6C00022B0CD1022804D003280CBF11200820E0
:104D7C00704703230B70002070470E2070470820EB
:104D8C00704710B50C4681B10B78042B04D8DFE8C2
:104D9C0003F00E05030E0E00112010BD03F030FEC3
:104DAC000028FAD102232370F7E70E20F5E708203C
:104DBC00F3E7000070B5144B144A0C21D21AB2FB65
:104DCC00F1F2816911F8025C044635B900690021E1
:104DDC00914205D1012323600EE04FF0FF30F6E73E
:104DEC001E68AE420CD1461C07D19D68D4E9000167
:104DFC00D4E90223A847206070BD5E688642F4D0D7
:104E0C0001310C33E4E700BF08A3070014A307002B
:104E1C001EF0040F0CBFEFF30880EFF30980FFF7CF
:104E2C00C9BF00BF28B139B10023C1E90030184611
:104E3C00704748F21050704748F21350704730B129
:104E4C00036848F240508B4208BF0020704748F27C
:104E5C001050704728B148F21150914208BF002001
:104E6C00704748F21050704770B506460C461D4608
:104E7C00FFF7D8FF50B9B3794AB1AB420AD111460A
:104E8C002046FFF77AFA08B9044B236070BD48F24C
:104E9C001050FBE748F21150F8E700BF7052464D36
:104EAC002DE9F0470C4607460F4920461546984613
:104EBC00DDE90869FFF7C3FF98B963685A79494679
:104ECC0052003046FFF7C6FF58B945B10896434625
:104EDC002A4621463846BDE8F047FFF756BA48F255
:104EEC001050BDE8F08700BF7052464D10B5044617
:104EFC0038B149B141600B68984708B9044B23603D
:104F0C0010BD48F20150FBE748F21050F8E700BF23
:104F1C006E524648F0B4134648B10768094EB74282
:104F2C000AD161B12AB14368F0BC5B68184748F2FA
:104F3C0001531846F0BC704748F20253F9E748F2A7
:104F4C001053F6E76E524648F0B460B107680C4E49
:104F5C00B7420CD171B143681568DC68A5420CD31B
:104F6C009B68F0BC184748F20150F0BC704748F2FF
:104F7C000250FAE748F21350F7E748F21450F4E7FE
:104F8C006E5246482DE9F041044617469846DDE935
:104F9C000656FFF7ABFF60B9424639462046FFF78D
:104FAC00B9FF30B9324629462046BDE8F041FFF73B
:104FBC00CBBFBDE8F0810000F8B50A4F0A4C0B4D91
:104FCC00E41B0121E40829700026A64203D1022328
:104FDC002B700020F8BD57F8363098470028F9D1CF
:104FEC000136F2E700A3070000A307001C6C0020A9
:104FFC0038B50D46044618B908493320FEF764F855
:10500C00691E21442046814200D238BD03780A78BB
:10501C0000F8012B01F80139F5E700BF80AE07005D
:10502C0070B50D461446064618B90A494520FEF7D8
:10503C004BF81DB907494620FEF746F8621E32446C
:10504C00013DB24200D270BD15F8013F02F80139A2
:10505C00F7E700BF80AE070070B5164604460D4654
:10506C00FFF7DEFF3246A919A019BDE87040FFF723
:10507C00D7BF38B50D460446FFF7BAFF294660196D
:10508C00BDE83840FFF7B4BF7047000008B5FDF726
:10509C00B5FDFDF763FB0028FBD10D4D642445F0F5
:1050AC0001054FF47A40A847013CFAD1094B1B6823
:1050BC00DB0700D500BEBFF34F8F0749074BCA680B
:1050CC0002F4E0621343CB60BFF34F8F00BFFDE7E8
:1050DC0030AF0700F0ED00E000ED00E00400FA0551
:1050EC0007B5074B074C0092E41AE40824040B465E
:1050FC000246054944F00100FDF7CFFCFFF7C6FF5F
:10510C0014A3070014A30700D1AE070008B5064A84
:10511C00064B07499B1ADB081B04024643F00100AF
:10512C00FDF7A8FCFFF7B2FF14A3070014A30700B8
:10513C0008AF07000022104638B54FF4805101F03B
:10514C009BFA024608B1FFF7E1FF1348C0F5FC21BA
:10515C0001F092FA01460028F5D11048104CFDF7E9
:10516C009FFAFDF7C1F90F4B0F49E41AE408240428
:10517C0044F003042046FDF779FC0C4801F030F9AB
:10518C0005460028DFD101F039FA20460849FDF721
:10519C006DFC284638BD00BF00200700296A0700B7
:1051AC0014A3070014A3070036AF0700955007009F
:1051BC0042AF07008B1802448B4200D1704713F8A2
:1051CC00010D02F8010DF7E70000000000000000DF
:1051DC0000000000C3F10803DB0070B501330024AC
:1051EC0003A500BF5B1920C940CAAD1920C01847E0
:1051FC0020C940CA754120C020C940CA754120C091
:10520C0020C940CA754120C020C940CA754120C080
:10521C0020C940CA754120C020C940CA754120C070
:10522C0020C940CA754120C06441204670BD00BFF2
:10523C0000000000C3F10803DB0070B5013300244B
:10524C0003A500BF5B1920C940CAAD1B20C018477D
:10525C0020C940CAB54120C020C940CAB54120C0B0
:10526C0020C940CAB54120C020C940CAB54120C0A0
:10527C0020C940CAB54120C020C940CAB54120C090
:10528C0020C940CAB54120C06441B4FA84F0400939
:10529C0070BD00BF2DE9F04F08B4F8CA04B451F842
:1052AC00042BA3FB028940F8048B4FF0000AE4FBAB
:1052BC00629A4FF0000BE5FB62AB4FF0000CE6FB83
:1052CC0062BC4FF0000EE7FB62CE51F8042B4FF09E
:1052DC000008E3FB628940F8048BE4FB629AE5FB6F
:1052EC0062ABE6FB62BCE7FB62CE51F8042B4FF0DD
:1052FC000008E3FB628940F8048BE4FB629AE5FB4F
:10530C0062ABE6FB62BCE7FB62CE51F8042B4FF0BC
:10531C000008E3FB628940F8048BE4FB629AE5FB2E
:10532C0062ABE6FB62BCE7FB62CE51F8042B4FF09C
:10533C000008E3FB628940F8048BE4FB629AE5FB0E
:10534C0062ABE6FB62BCE7FB62CE40F8049B40F824
:10535C0004AB40F804BB40F804CB40F804EB0CBCA5
:10536C00052B00F01E810C68A0F11400A1F11401B2
:10537C00A2F1140252F804EB4FF0000550F8046B44
:10538C00E4FB6E5652F804EB50F8047BE4FB6E67BA
:10539C0052F804EB50F8048BE4FB6E7852F804EBF3
:1053AC0050F8049BE4FB6E8952F804EB50F804AB04
:1053BC00E4FB6E9AA0F1140052F8044B51F804EB84
:1053CC004FF0000CE4FB6EC540F804CB51F804EB35
:1053DC00E4FB6E5640F8045B51F804EBE4FB6E679B
:1053EC0040F8046B51F804EBE4FB6E7840F8047B56
:1053FC0051F804EBE4FB6E8940F8048B51F804EB94
:10540C00E4FB6E9AA0E80006062B00F0CA800C683C
:10541C00A0F11800A1F11801A2F1180252F804EB46
:10542C004FF0000550F8046BE4FB6E5652F804EB99
:10543C0050F8047BE4FB6E6752F804EB50F8048BD5
:10544C00E4FB6E7852F804EB50F8049BE4FB6E8995
:10545C0052F804EB50F804ABE4FB6E9A52F804EBF0
:10546C0050F804BBE4FB6EABA0F1180052F8044BEF
:10547C0051F804EB4FF0000CE4FB6EC540F804CB84
:10548C0051F804EBE4FB6E5640F8045B51F804EB66
:10549C00E4FB6E6740F8046B51F804EBE4FB6E78A8
:1054AC0040F8047B51F804EBE4FB6E8940F8048B64
:1054BC0051F804EBE4FB6E9A40F8049B51F804EBB2
:1054CC00E4FB6EABA0E8000C072B6AD008B40C68A8
:1054DC00A0F11C00A1F11C01A2F11C0252F804EB7A
:1054EC004FF0000550F8046BE4FB6E5652F804EBD9
:1054FC0050F8047BE4FB6E6752F804EB50F8048B15
:10550C00E4FB6E7852F804EB50F8049BE4FB6E89D4
:10551C0052F804EB50F804ABE4FB6E9A52F804EB2F
:10552C0050F804BBE4FB6EAB52F804EB50F804CB20
:10553C00E4FB6EBCA0F11C0052F8044B51F804EBD8
:10554C004FF00003E4FB6E3540F8043B51F804EBDC
:10555C00E4FB6E5640F8045B51F804EBE4FB6E6719
:10556C0040F8046B51F804EBE4FB6E7840F8047BD4
:10557C0051F804EBE4FB6E8940F8048B51F804EB12
:10558C00E4FB6E9A40F8049B51F804EBE4FB6EAB21
:10559C0040F804AB51F804EBE4FB6EBCA0E8001837
:1055AC0008BCBDE8F08F002310B51C465AB29142DE
:1055BC0000DC10BD40F823400133F7E710B50023A1
:1055CC001A465CB2A14203DCB2FA82F0400910BD6B
:1055DC0050F8234001332243F3E74A11012350F8DA
:1055EC00220001F01F0103FA01F108407047013954
:1055FC0010B549B2041D0A06CBB204D4013954F8D3
:10560C002120002AF7D001335BB273B103F1804241
:10561C00013A50F82220002022B9013B00EB431341
:10562C0018B210BD52080130F6E71846F9E710B56C
:10563C0000235CB2A24200DC10BD51F8234040F8BC
:10564C0023400133F5E710B5013A52B2130601D5E8
:10565C00002010BD50F8224051F822309C4205D851
:10566C0002F1FF32F2D24FF0FF30F2E70120F0E707
:10567C0000EB81010023884200D3704751F8042DC0
:10568C0043EA52030B60D307F5E770B59DF9104060
:10569C001E4623460546FFF79DFD30B92246294696
:1056AC003046FFF7D0FF012807D023463246294663
:1056BC002846BDE87040FFF7BDBD70BD70B59DF9C3
:1056CC0010401E4623460546FFF7B4FD38B123466D
:1056DC00324629462846BDE87040FFF77BBD70BDB9
:1056EC002DE9F04FB5B004AC9DF9F8501F4681463A
:1056FC002B462046FFF7CEFD24AB29463846CDE994
:10570C000234FFF774FFC0EB851004B2002C264660
:10571C00B8BF04F11F06634246F3471603F01F039C
:10572C0004F01F0814A858BFC3F100083146FFF756
:10573C003AFFB8F1000F30B22DDD14AB002203EBB1
:10574C008000C8F1200C1346AB4219D32FB27B005A
:10575C00019314AB03EB870705F1FF3834AB01263B
:10576C0003EB8808002C54DA34AB03EB86062A468C
:10577C0056F8C81C4846FFF75AFF35B0BDE8F08F05
:10578C0057F8236006FA08F10A4340F8042B01335A
:10579C0026FA0CF2D8E714AB2A46394603EB800004
:1057AC00FFF745FFD2E70FFA82FE5AF8C83C53F8D0
:1057BC002EB034AB03EB8202013052F8803C0B4428
:1057CC00BBEB030334BF012200229B4518BF1146DB
:1057DC005CF8C82C42F82E30019B42B29A42E2DBB4
:1057EC00731A5E42294614A85E41FFF741FF34ABA1
:1057FC0003EB8503294653F8802C58F8803C384637
:10580C0043EAC273013C48F8803C24B2FFF730FFF6
:10581C00A8E734AB0020C6F1010C014603EB860A65
:10582C0003EB8C0CD8E730B51C4691B0054693F9C8
:10583C0000306846FFF72EFDD4F8AC306946284698
:10584C00984711B030BD13460A46FFF7ECBF2DE95F
:10585C00F04793F9006092B00446894610463146F1
:10586C0015469846FFF7AAFE002840F09180424664
:10587C00494602A8FFF7E7FF434602AA21460AA8B9
:10588C00FFF7D1FF02A908464246FFF7DCFF43466B
:10589C002A4649464846FFF7C6FF08F10407424628
:1058AC0029462846FFF7CFFF3B462A46214620468D
:1058BC000096FFF7EAFE3B462A4629462846009604
:1058CC00FFF7E3FE3B462A46214628460096FFF7A3
:1058DC00F5FE43462A4621462046FFF7A4FF3B46E9
:1058EC002246214628460096FFF7CFFE3B460096FF
:1058FC002A4621462046FFF7C8FE2368DB074AD517
:10590C0033463A4621462046FFF764FC3146824630
:10591C002046FFF7ADFE06F18043013B54F823000F
:10592C0040EACA7044F82300424621462846FFF755
:10593C008AFF3B460AAA294628460096FFF7BEFE78
:10594C003B460AAA294628460096FFF7B7FE0AA945
:10595C0008463B462A460096FFF7B0FE43460AAA85
:10596C0021462046FFF75FFF02AA3B461046214620
:10597C000096FFF7A3FE324629462046FFF757FE56
:10598C0049462846FFF753FE02A94846FFF74FFE4B
:10599C0012B0BDE8F08731462046FFF769FEC3E739
:1059AC002DE9F04115468AB0044688461C22002198
:1059BC0003A804F01AFC2E1D95F9007003232A4647
:1059CC00414620460293FFF73EFF334602AA21468A
:1059DC0020460097FFF772FE2B4642462146204692
:1059EC00FFF721FF0097334605F18402214620463C
:1059FC00FFF74BFE0AB0BDE8F0810000F0B50822BD
:105A0C0089B00C460646FFF712FECB6A03930B6B6C
:105A1C0004934B6B05938B6B0693CB6B079300270F
:105A2C0008236A4669466846CDE901770097FFF777
:105A3C00D1FB082305466A4631463046FFF7CAFBC0
:105A4C00236B0393636B0493A36B0593E36B054484
:105A5C00CDE906376A46082369466846FFF7BAFB64
:105A6C00082305446A4631463046FFF7B3FB236AE8
:105A7C000093636A0193A36A0293A36B0693E36B8F
:105A8C000793054408236A4631463046CDE904772E
:105A9C000397FFF79FFB636A0093A36AA26B0193C2
:105AAC00E36A02930492636BE26B0393CDE90523E3
:105ABC00236A0793054408236A4631463046FFF7AC
:105ACC0089FBE36A0093236B0193636B0293236A54
:105ADC000693A36A0793054408236A463146304669
:105AEC00CDE904770397FFF7A5FB236B0093636B5A
:105AFC000193A36B0293E36B0393636A0693E36ACC
:105B0C0007932D1A08236A4631463046CDE90477AF
:105B1C00FFF790FB636B0093A36B0193E36B029312
:105B2C00236A0393636A0493A36ACDE90537236B55
:105B3C0007932D1A08236A4631463046FFF77AFB45
:105B4C00A36B0093E36BCDE90137636A0393A36AFC
:105B5C000493E36ACDE90537636B07932D1A082389
:105B6C006A4631463046FFF765FB2D1A0D4C0FD4B3
:105B7C0035B9082231462046FFF765FD01280FD0C4
:105B8C000823224631463046FFF754FB2D1AEFE727
:105B9C000823224631463046FFF71CFB2D18F7D45C
:105BAC0009B0F0BD94AF0700F0B5154689B01C469E
:105BBC0007460E461A4629466846FFF744FE23461A
:105BCC006A4639463846FFF72EFE23462A46694672
:105BDC006846FFF728FE23466A4631463046FFF7F3
:105BEC0022FE09B0F0BD2DE9F0438BB01446129D96
:105BFC0015F9046B00961F46804689462B460246D3
:105C0C00214602A8FFF75AFD02A9129A0846FFF78F
:105C1C001AFE129B02AA41464046FFF704FE129B55
:105C2C0002AA21462046FFF7FEFD2B464A4639467E
:105C3C0038460096FFF742FD129A394602A8FFF744
:105C4C0002FE02A92B46424608460096FFF736FD97
:105C5C0002A92B46224608460096FFF72FFD2B463D
:105C6C004246214620460096FFF728FD129B22460D
:105C7C0049464846FFF7D7FD2B4602AA4146204627
:105C8C000096FFF71BFD129B224639463846FFF75C
:105C9C00CAFD2B464A46394638460096FFF70EFD9C
:105CAC00324602A92046FFF7C2FC0BB0BDE8F083D8
:105CBC002DE9F0471F46B3F90230894613F11F0155
:105CCC0048BF03F13E014D11D91D48BF03F10E0130
:105CDC00CC1094424FFA85F828BF1446414606462C
:105CEC00FFF761FC22464946FFF764FAB7F9022038
:105CFC00E40094421FD9A41A06EB85010022C4F1DA
:105D0C0020058E420ED32437424631463846FFF7E3
:105D1C009AFC01280FD043463A463046BDE8F0477E
:105D2C00FFF788BA51F8040D20FA04F313430B6003
:105D3C0000FA05F2E5E7BDE8F08770B5036813F0EB
:105D4C0001060546144605D013460A460146FFF7E0
:105D5C0041FA064621462846FFF78AFC46B104F173
:105D6C008042013A55F8223043F0004345F8223086
:105D7C0070BDF0B50F46A1B006461946384615461B
:105D8C001C46FFF71BFC20B13046FFF70CFC21B082
:105D9C00F0BD224639466846FFF749FC294608A85B
:105DAC00FFF745FC10A82146FFF7FDFB012318A8BF
:105DBC001093FFF7F8FB224608A96846FFF743FC4F
:105DCC0028B9224610A93046FFF731FCDFE7009BCB
:105DDC00DA0709D421466846FFF74AFC22462946D1
:105DEC0010A8FFF7AAFFE6E7089BDB0707D42146BC
:105DFC0008A8FFF73DFC2246294618A8F1E7002821
:105E0C0023461CDD08AA69466846FFF713FA2146AB
:105E1C006846FFF72DFC224618A910A8FFF713FCC3
:105E2C00002805DA10A923462A460846FFF7D2F9BE
:105E3C0010A9234618AA0846FFF7FCF9CEE708A9D3
:105E4C006A460846FFF7F6F9214608A8FFF710FC4A
:105E5C00224610A918A8FFF7F6FB002805DA18A9A6
:105E6C0023462A460846FFF7B5F918A9234610AA77
:105E7C000846FFF7DFF9BEE70048704790AF070010
:105E8C002DE9F04FEDB01F46769E0490B6F9023026
:105E9C0096F9004013F11F0948BF03F13E0949F37D
:105EAC00471909F1FF3824AB002543F828506CAB97
:105EBC0003EB88034CA88A469346394696F9012091
:105ECC0043F8805C43F8605CFFF774F996F90120A5
:105EDC0054A8B918FFF76EF921464CA8FFF76EFBD2
:105EEC000746002840F02D8154A8FFF767FB02906D
:105EFC00002840F0288106F124034A464CA9184694
:105F0C000393FFF7A0FB012840F01F814A4654A9D8
:105F1C000398FFF798FB0128069040F016811CAD02
:105F2C000CAF4B46039A54A92846FFF722FF029B5D
:105F3C0047F828305A46514638463346FFF7B8FEE4
:105F4C0039463846039BCDF800902A46FFF7C8FB2C
:105F5C000DF5B878039BCDF800902A464CA914A8EF
:105F6C00FFF7BEFB224640460499FFF760FBA300F7
:105F7C0008EB030A0793049BA100591806F1440B84
:105F8C005046FFF754FB594634A8FFF750FBA300CB
:105F9C000BEB03013CA8FFF74AFB331D414634AA27
:105FAC00284600940593FFF789FB534642463CA9CB
:105FBC0034A80096FFF717FE2346321D29462846C3
:105FCC00FFF7D7FE2A46514640463346FFF7ECFD15
:105FDC00029BCDE9083B049B49463846CDE90A387B
:105FEC00FFF705FB4946804614A8FFF700FB8045E8
:105FFC00B8BF80461FFA88F808F1FF3B0FFA8BFBFD
:10600C0059463846FFF7E9FA5946071C14A818BF39
:10601C000127FFF7E2FA002814BF022300231F43D5
:10602C000DF1200A22465AF8277024A83946FFF7AA
:10603C00FEFA0DF1B00BA300F9185846FFF7F7FA6A
:10604C0021462846FFF7AFFAA8F10208069B2B6001
:10605C000FFA88F80DF1900AB8F1000F23DA2346F5
:10606C00059A29462846FFF784FE33462A465946A8
:10607C005046FFF799FD4A4651460398FFF7E3FA5D
:10608C00012804D04B46039A5046FFF7D3F8013C45
:10609C0064B24CAA23064AD5029BB3FA83F040099A
:1060AC006DB0BDE8F08F33462A46D6F8A470594639
:1060BC005046B84741460CA8FFF78FFA4146071CDB
:1060CC0014A818BF0127FFF788FA002814BF022371
:1060DC0000231F4308AB53F827701FB322463946E1
:1060EC0034A8FFF7A4FA079B3CA8F918FFF79FFA0E
:1060FC0033462A463CA934A8FFF756FD059B00946D
:10610C0034AA514644A8FFF7D9FA5B4652463CA93B
:10611C0034A80096FFF767FD334644AA2946284663
:10612C00FFF781FB08F1FF380FFA88F894E752F873
:10613C0024105AF824304B40029919430291013C27
:10614C00A8E72846ACE73846AAE70298A8E703690F
:10615C00C1688B429DBF8268D21802F1FF3203F1F5
:10616C00FF3394BF501A581A70472DE9F041D0E90B
:10617C00027405463E1B40689642204488461444EF
:10618C0004D904F009F8EC60BDE8F0813246E41B58
:10619C0004F002F8224608EB06016868F1E72DE9E5
:1061AC00F843C5680646894617464FF0000834691F
:1061BC00B3687068A54228BFE418013C621B5C1BE5
:1061CC00BC4228BF3C46944228BF1446494628444A
:1061DC00224603F0E1FFB3682544AB4208BF00251B
:1061EC003F1BA044A144F560E1D14046BDE8F883D3
:1061FC0010B5114C114AA2610223C4E90433104BAF
:10620C00E361A2644FF480530E4A2362E2640023DC
:10621C0010220D49A362E01D6362E362A36563650E
:10622C00E365226504F014F80849204604F010F8E0
:10623C002023A37110BD00BF206C002040B00700CC
:10624C00A86C0020986C002049B007004DB00700E6
:10625C00F8B5184C182300FB033503FB004025440C
:10626C00C46A012C0F46164611D024B1022C1BD047
:10627C0000242046F8BD2846FFF769FFB042F8D34A
:10628C00324639462846FFF770FF3446F1E7284678
:10629C00FFF75DFF8642344628BF04462246394646
:1062AC002846FFF762FFE4E72846BDE8F840FFF711
:1062BC0076BF00BF206C0020FFF79ABF41DF70470C
:1062CC00014B01221A707047C880002008B509489C
:1062DC00094B0A49C01AC008000440F00400FCF73E
:1062EC00C5FB074B074800221A70BDE8084002F0B6
:1062FC00A1BA00BF14A3070014A3070054B00700F1
:10630C00C88000207D63070008B50748074B084983
:10631C00C01AC008000440F00300FCF7A7FBBDE85E
:10632C000840FFF7D3BF00BF14A3070014A3070056
:10633C0076B00700C31E10B50446042B09D8DFE85D
:10634C0003F00303080F0F0007494FF4701000F01F
:10635C0025FB064B1B6833B12046BDE8104018479F
:10636C00FFF7B4FFF5E710BD15630700CC800020E4
:10637C0008B5FCF743FCFCF7F1F90028FBD10B4DF9
:10638C00642445F001054FF47A40A847013CFAD14A
:10639C00BFF34F8F0649074BCA6802F4E062134300
:1063AC00CB60BFF34F8F00BFFDE700BF70B007009D
:1063BC0000ED00E00400FA0508B50648064B074955
:1063CC00C01AC008000440F00400FCF74FFB00208A
:1063DC0008BD00BF14A3070014A3070010B20700E8
:1063EC00F8B56D4B6D4C6E49E41AE408240444F086
:1063FC00040705463846FCF739FB6A4B6A4A1D60B0
:10640C004FF0A0430020C3F8402702F029FA48B906
:10641C0000F080FC012800F0B48041B221B10228C8
:10642C0000F0B7800320F8BD4FF08043D3F8005440
:10643C0015F4803546D04FF48032C3F800240D4655
:10644C005A4E336A012B50D0594944F00300FCF7E3
:10645C000DFB58493846FCF709FB4FF4701400F05B
:10646C0085FD554A20211820FCF7F8FC08B1FEF7F1
:10647C004DFE524B1A6802F0F802B02A06D11A6887
:10648C00D20742BF1A6802F04E021A60FFF794FF5F
:10649C000028C7D120464A4900F080FA494800F04C
:1064AC0049FF0028BED148493846FCF7DFFA00F016
:1064BC00A3FDFCF75DFDFCF751F90028F7D1FFF7C0
:1064CC00FDFEF4E7D3F8202502F0F802A82A0AD141
:1064DC00D3F82025D00706D5D3F8202502F0560294
:1064EC00C3F82025ACE70125AAE743F204031A6898
:1064FC00364B9A420FD1726B1DB996F86032012B54
:10650C0009D04FF48051324803F09CF818B9314946
:10651C0044F002009BE702F051FBB26901461DB941
:10652C0096F8A132012B05D02B4803F08BF808B953
:10653C002A49EDE72A493846FCF798FA4FF0A04370
:10654C00D3F81035D90301D4264983E71B4B1B68BC
:10655C0013F0B10F01D024497CE702F089FA00282E
:10656C007FF460AF214D2870214802F063F92B783D
:10657C0023B920494FF4FE70FCF7A6FD00F03EF85D
:10658C0001E0FFF7A3FE1C4944F00100FCF76EFA92
:10659C0048E74FF4A02462E714A3070014A30700F4
:1065AC008AB00700CC8000200C0003009C980020CF
:1065BC00A1B007003FB10700A87C00201C050040DB
:1065CC001563070041630700AEB10700DBE5B1516D
:1065DC00FC9A0020CFB007003D9B00200AB10700B9
:1065EC0032B1070062B1070081B10700C8800020FA
:1065FC00CD620700BEB10700A2B1070070B5184B01
:10660C00184C194D1949E41AE408240444F0040602
:10661C004FF480523046FCF72DFAD5F880201449FF
:10662C003046FCF727FA4FF0FF33C5F88030C5F839
:10663C008031C5F88430C5F8843101F067FD20B194
:10664C000C4944F00100FCF711FAFCF787F800281C
:10665C00FBD14FF48050BDE8704000F039B800BF5A
:10666C0014A3070014A3070000E100E02AB20700FE
:10667C0060B207008AB207000346C1F30B0070B585
:10668C0020BBB3F5FE2F21D81B0B013903EB1131C5
:10669C0001264FF08044994200D270BD03F01F02D6
:1066AC005D0906FA02F2032D05D8DFE805F00206B3
:1066BC00090CC4F800260133EDE7C4F80426FAE708
:1066CC00C4F81026F7E7C4F81426F4E70720E4E72B
:1066DC0030B504462C48002289B0C0F5FE21FFF7E6
:1066EC00CBFF024648B12948294B2A491B1ADB0823
:1066FC001B0443F00100FCF7BDF902F05FFA264BD6
:10670C009969002201441046FFF7B6FF024648B1D2
:10671C001E481F4B21491B1ADB081B0443F00100C8
:10672C00FCF7A8F9EFF305810023D4E9002083F3EB
:10673C00148883F3108883F3118883F31388C1F3CF
:10674C00080139B982F308884FF0FF339E460047A1
:10675C0009B030BDA2F120044FF0FF35CDE9003374
:10676C00CDE902330493CDE905504FF0807320221C
:10677C0069462046079303F00FFD84F30888AE4664
:10678C006FF006031847E3E70020070014A3070087
:10679C0014A30700BFB207009C980020F6B20700B4
:1067AC0073B5274B06462748C01AC00800040C4690
:1067BC003246254940F00400FCF75CF9B4F1807FC7
:1067CC0039D322498F20FCF77FFC6FF07F43204A9E
:1067DC00A34228BF2346D2F80455E41A1D44631E75
:1067EC00942B96BF963474607460347B25F07F458F
:1067FC0098BF963D032C03D914497720FCF764FC11
:10680C00134E04F5A8734FF4F86046F82350114B5F
:10681C0043F001039847104BA200134400221A6066
:10682C001B680193019B4FF4803303FA04F4C6F800
:10683C00044302B070BD952CC7D804499020C2E720
:10684C0014A3070014A3070056B307006CB307008A
:10685C000040024050B307004041024018490A78FA
:10686C0084B0002A29D14FF08043A020D3F81834EB
:10687C00DB035EBF134B01221A60134A0023136023
:10688C0012680392039A114A136012680292029AD8
:10689C000F4A136012680192019A0E4A82F824037F
:1068AC00102050600C4A0D48C2F8083501230360D3
:1068BC0002201360C2F804030B7004B0704700BFD1
:1068CC00D4800020080000400041024040410240BA
:1068DC004441024000E100E0004002400840024018
:1068EC00244B2DE9F7431A6842B123490A68013257
:1068FC000A6000221A601B680093009B1F4D204BFE
:10690C00204C214EDFF88C80DFF88C901F4FED1A55
:10691C00ED082D0445F004053368CBB1002333603A
:10692C0033680193224641462846019BFCF7A2F8A6
:10693C00227B17494FF480339340C9F80833224621
:10694C002846FCF797F8616851B12046FFF728FFFD
:10695C000436BE4204F11004DED103B0BDE8F0836E
:10696C00A16811B12046FFF71BFF2368002BEFD065
:10697C009847EDE704410240D080002014A30700A3
:10698C0014A30700D4570020404102404841024064
:10699C003CB307002AB3070000400240F8B5114B86
:1069AC00114E044611483768C01AC00800043A4614
:1069BC000D4640F004000E49FCF75CF83A7B4FF4AE
:1069CC00803393400B4AC2F808334CB13668FFF75A
:1069DC0045FF356021463046BDE8F840FFF7E0BE84
:1069EC00F8BD00BF14A30700F457002014A3070040
:1069FC002AB307000040024070B5074B1C680546DF
:106A0C000E46A060FFF72AFF266029462046BDE807
:106A1C007040FFF7C5BE00BFF8570020034A044B77
:106A2C001068D3F8043503EB00607047D080002069
:106A3C0000400240014B01221A707047D5800020A3
:106A4C002DE9F341274FFA6A7E6ABC6CAC2A31D12E
:106A5C007B6B1C44F61A244B244D0096ED1AED0862
:106A6C002D0445F004082346214A22494046FCF7F0
:106A7C0014F8FB6AAC2B23D0324621461C4803F099
:106A8C0050FB28B3334622461B494046FBF7FBFF1D
:106A9C00FBF764FE0028FBD100F0AEFA204631462D
:106AAC0001F016FB0446C0B1144945F00100FBF798
:106ABC00DDFF12E0002CCED102F096F80446CAE7B6
:106ACC003246A4F580410A4803F02BFB0028D3D1B1
:106ADC000B494046FBF7CAFF0024204602B0BDE834
:106AEC00F08100BF9C98002014A3070014A307009A
:106AFC0000200700C9B30700FEB3070062B407000B
:106B0C002BB407002DE9F04F3B4B17463B4A9B1A21
:106B1C0087B0DB081B040493814243F00403054651
:106B2C008946039308D136491846FBF79FFF00248A
:106B3C00204607B0BDE8F08F03D232494F20FCF756
:106B4C00C3FAC5F30B031BB12E495120FCF7BCFA59
:106B5C00A9EB0503B3F5805F4FEA133B03D2294938
:106B6C005420FCF7B1FA00F001FABBF1080F28BF72
:106B7C004FF0080B07F6FF784FEA0B334FEA183843
:106B8C0005930FB93C46D3E7C3452CBFC246DA4642
:106B9C004FF00002514628462CBF3E46059E01F0A0
:106BAC0051FA04460028C3D12B464A46164903988D
:106BBC000096FBF772FFF21C234622F003024946B3
:106BCC00284601F001FA04460028B1D10F4A136B94
:106BDC00BF1B3544B1441E44166301F031FEA8EBD3
:106BEC000A0804460028CCD0049B094943F0010054
:106BFC00FBF73CFF9CE700BF14A3070014A307009E
:106C0C007CB407008BB40700EBB407009C98002001
:106C1C000CB507002DE9F04701F0F6FF344C354B6D
:106C2C00DFF8ECA03449DAF84880DAF83050DAF8BA
:106C3C003470E41AE408240444F004090646484677
:106C4C00FBF714FF42F2040358F8032003F1A343AB
:106C5C0003F5471303F2D7539A4208D0274944F05F
:106C6C000100FBF703FF03252846BDE8F087DAF89F
:106C7C003030BB42984405D121494846FBF7F6FE1B
:106C8C000025F1E7E3B94FF4405248461278142A34
:106C9C0081BF43F214021B491268B2FBF1F208F5F2
:106CAC00005198BF1A460978142981BF42F2140387
:106CBC0058F80310134BB1FBF3F31349FBF7E3FE46
:106CCC007A1B02F6FF7222F47F62701922F00F0217
:106CDC004146FFF717FF054628B10C4944F0010067
:106CEC00FBF7C4FEC0E7BDE8F04701F0A9BD00BF4B
:106CFC0014A3070014A3070012B7070037B7070047
:106D0C006BB7070040420F007DB70700A6B707001E
:106D1C009C9800202DE9F0475C4B5D4C5D4F5E4923
:106D2C00E41AE408240444F004084046FBF79EFEF1
:106D3C00FB6AA52B00F0858009D8012B20D044F0EC
:106D4C0003005649FBF792FE0020BDE8F087AA2B02
:106D5C0000F08280AC2BF2D151494046FBF786FE05
:106D6C0050494046FBF782FEFFF754FF05460028CA
:106D7C007BD04D4944F00100FBF778FE012620E062
:106D8C004A494046FBF772FE7E6AD7F8489001F0FC
:106D9C0015FF3D6B464900EB050A4046FBF766FEC6
:106DAC00396B49448A4514BF721B00225046FFF7C9
:106DBC00A9FE054668B13F4944F00100FBF756FEB9
:106DCC000026FB6A3C492A4644F00100FBF75BFEB7
:106DDC0012E001F0F3FE2A463146FCF759F9BA6A83
:106DEC009042814626D135494046FBF73FFE0123B0
:106DFC00C7E90793BE612E463148324D01F0D2FEF1
:106E0C00002331482B7001F01BFD2B78814623B9F0
:106E1C002E494FF4D170FCF757F9B9F1000F2CD172
:106E2C0096B33B6A012B2FD140462949FBF71EFE36
:106E3C0002208AE70346274944F00100FBF723FEB2
:106E4C00D9E725494046FBF711FEFFF7E3FE012683
:106E5C000546002DD0D0B4E720494046FBF706FE8E
:106E6C00FFF7EEFD00260546F3E7FFF7E9FD0546C3
:106E7C0008B11B497EE70126BEE744F00100194921
:106E8C00FBF7F4FD032060E701205EE714A3070085
:106E9C0014A307009C98002045B5070051B60700C5
:106EAC00FAB5070008B6070025B6070066B5070057
:106EBC0070B50700A6B707006AB607008BB50700C8
:106ECC00C0980020D5800020416A07008BB40700D1
:106EDC009CB60700A0B50700E8B50700F1B50700A0
:106EEC003BB60700F8B607000A4AD2F800347BB16B
:106EFC0009480023D2F80815D940C90748BF03F543
:106F0C00C07103F1010348BF42F82100072BF1D1F6
:106F1C00704700BF000001403546526E08B5074867
:106F2C00074B0849C01AC008000440F00300FBF7E7
:106F3C009DFDBDE80840FFF7D7BF00BF24A30700A5
:106F4C0014A3070030B8070007B5074B00221A60DE
:106F5C001B680193019BFBF751FEFBF7FFFB00281D
:106F6C00FBD103B05DF804FB0001014070B5194E74
:106F7C0033784BBB184C1949194B641AE408D3F8F5
:106F8C000024240444F00304FAB1D3F80455154941
:106F9C002A462046FBF76EFD40F616539D42B8BFBD
:106FAC001D46A5F54865FFF79FFF2A460E4920466A
:106FBC00FBF760FD0D492846FFF71EFD0C4B4FF407
:106FCC0080321A600123337070BD0A492046FBF7EA
:106FDC004DFDF7E7D680002024A3070014A307007B
:106FEC0000000140BFB70700D8B70700296F0700A2
:106FFC0000E100E00AB80700034BD3F800340BB1F2
:10700C00FFF772BF704700BF000001400C4B1B78AC
:10701C00062B10D10B4B1B681A070CD10A4B1868A6
:10702C0000F0F003302B08D000F0E000A0F140039A
:10703C00584258417047002070470120704700BFEC
:10704C00E00F00F0E40F00F0E80F00F0094B1B78A4
:10705C00062B0CD1084B1B681A0708D1074B186874
:10706C0000F0F000A0F13003584258417047002066
:10707C00704700BFE00F00F0E40F00F0E80F00F0E5
:10708C0008B5FFF7C3FF28B17D4B7E4A1B68C3F3DD
:10709C0004231360FFF7DAFF10B17B4B7B4A1A60B5
:1070AC00FFF7B4FF28B17A4B7A4A1B68C3F342331B
:1070BC001360FFF7CBFF20B1774AD36823F08073BE
:1070CC00D360FFF7A3FF40B14FF080430022C3F819
:1070DC000C21C3F81021C3F83825FFF7B7FF10B106
:1070EC006E4B03221A60FFF7B1FF40B16C4B0522C7
:1070FC001A6001229A6700229A603F225A60694BFB
:10710C001B78062B50D1684B1B6819074CD1674B69
:10711C001B6803F0F003502B46D14FF08052644BA8
:10712C00D2F80414C3F82015D2F80814C3F82415A7
:10713C00D2F80C14C3F82815D2F81014C3F82C1577
:10714C00D2F81414C3F83015D2F81814C3F8341547
:10715C00D2F81C14C3F84015D2F82014C3F8441507
:10716C00D2F82414C3F84815D2F82814C3F84C15D7
:10717C00D2F82C14C3F85015D2F83014C3F85415A7
:10718C00D2F83414C3F86015D2F83814C3F8641567
:10719C00D2F83C14C3F86815D2F84014C3F86C1537
:1071AC00D2F84424C3F87025FFF730FF28B1414BC7
:1071BC00414A1B6803F04F031360FFF727FF48B1E8
:1071CC004FF08043D3F80024D20744BF6FF0010284
:1071DC00C3F80024394B1B68062B08D1384B1B68AD
:1071EC00062B01BF374A136843F480631360364A99
:1071FC00D2F8883043F47003C2F88830BFF34F8F55
:10720C00BFF36F8F4FF01023D3F80022002A03DB5B
:10721C00D3F80432002B2FDA2C4B0122C3F80425AF
:10722C00D3F80024002AFBD04FF010221521C2F80D
:10723C000012D3F80024002AFBD04FF010231522A3
:10724C00C3F80422214B1A46D3F800140029FBD0B2
:10725C000021C3F80415D2F80034002BFBD0BFF387
:10726C004F8F19491A4BCA6802F4E0621343CB6082
:10727C00BFF34F8F00BFFDE7164B174A1A6008BDCE
:10728C00240300104035014074C007400DF0ADBA26
:10729C00440200103C050040F0ED00E0A005004069
:1072AC0010560040E00F00F0E40F00F0E80F00F083
:1072BC0000C0004058020010E40E004030010010E5
:1072CC00340100103C17004000ED00E000E00140EC
:1072DC000400FA05FC5700200090D00313681F2B04
:1072EC0010B5144607D900220830FCF783FF08B903
:1072FC002023236010BD48F21450FBE70830FCF744
:10730C0055BF0830FCF722BF007800F00100704731
:10731C00062810B5044602D1002001F009FC044BEC
:10732C001B681BB12046BDE81040184710BD00BFBC
:10733C00D880002038B5104B104C1860104B1149F8
:10734C00E41AE408240444F00300FBF78FFB00204C
:10735C00FFF7DEFF0C4801F0B3FB054620B90A48E5
:10736C00BDE8384001F086B90246084944F00100F6
:10737C00FBF780FB284638BDD880002014A30700FB
:10738C0014A307000CBA07001D7307001FBA0700EF
:10739C006CDF70476DDF704772DF704773DF7047CB
:1073AC0074DF704775DF704776DF70477ADF7047A0
:1073BC007CDF70477DDF70477FDF704786DF70476B
:1073CC008FDF704790DF7047A8DF7047AADF7047E8
:1073DC00ADDF7047AEDF7047B0DF7047B1DF70478D
:1073EC00B5DF704762DF704766DF704713DF7047A9
:1073FC007FB50023CDF80A30ADF80E300A4BADF84E
:10740C0006109B89ADF8083001238DF80A300DF178
:10741C000603CDE90430054B02A91888FFF7DAFF03
:10742C0007B05DF804FB00BF469100200258002015
:10743C0010B5094B094904460948C01AC008000494
:10744C00224640F00400FBF715FB21460548BDE839
:10745C001040FBF7B3BF00BF14A307008EBF07009B
:10746C002CA3070098A3070070B5204E356815F0C3
:10747C00010532D01E4B984236D01E4B1E4C1F4D70
:10748C001F49E41AE408240444F004042046FBF7E2
:10749C00EDFA2A884FF6FF739A4220D019492046FC
:1074AC00FBF7E4FA3368288843F0040313213360B4
:1074BC00FFF77AFF054680B9134EC82546F0010642
:1074CC004FF47A40B047013DFAD102F0F9FB054682
:1074DC0018B90E492046FBF7C9FA284670BD0C4B6B
:1074EC001878FFF75DFFF0E70025F6E77C910020A8
:1074FC0000A3070014A307002CA3070002580020C8
:10750C00E6BA070003BB070080BF070012BB0700E9
:10751C000058002070B518228CB00DEB0200002131
:10752C0002F063FE282308932448254B2549264C5A
:10753C00C01AC0080004012540F004008DF8185052
:10754C008DF82D50FBF792FA1623ADF80630002378
:10755C00CDF80E30CDF81230ADF8163002230926D6
:10756C000622237023715923A27063710322FE2318
:10757C000DF10601A0190294ADF80C606570E27073
:10758C00A371FFF717FFB8B9BDF8063026725A1968
:10759C00E271BDF80C200D4C134402A906AA20463A
:1075AC00ADF80C30FFF7F8FE30B92078FFF7F8FE95
:1075BC0029462078FFF7F2FE0CB070BD2CA3070013
:1075CC0014A3070059BA07005A9100200058002054
:1075DC002DE9F0410388212B8CB0044600F06B811F
:1075EC0033D8122B00F03A8108D8102B57D076D80C
:1075FC00012B00F0AB810CB0BDE8F081142B00F036
:10760C003A82C0F001811A2B00F046821F2BF2D176
:10761C00B24BB34DB349ED1AED082D0445F00400FF
:10762C00FBF724FAB04B04F108011888FFF7BAFEF7
:10763C0004460028DFD00246AC4945F00100FBF7B8
:10764C0019FA2046FDF762FDD5E7502B5CD013D814
:10765C00232B00F0C780C0F01F81242BCBD19F4B74
:10766C009F486289A249C01AC0080004E38940F00F
:10767C000400FBF708FABEE7522B00F00D82C0F0B5
:10768C006B81552B00F08280562BB4D18379002B63
:10769C00B1D1954B13211888FFF786FE9AE08F4BDA
:1076AC008F4D9449ED1AED082D0445F00400FBF7BD
:1076BC00DDF98D4BA2881A808F4A12681C460AB1DC
:1076CC00012090478D492088FFF76CFE0246002868
:1076DC0091D08B4945F00100FBF7CCF98BE7824B3D
:1076EC004FF6FF721A80874B1B685A0704D4FFF7BA
:1076FC0011FF08B1FDF70AFD7F4B1B68002B3FF40F
:10770C007AAF0220984776E77F4FC288BB889A42AF
:10771C007FF471AF7D48724DFBF724FE6F4BED1A71
:10772C00ED082D04064628B9794945F00200FBF70F
:10773C009DF960E7F4230093238A7649024645F0CD
:10774C000400FBF7AAF9228A04F11201304602F078
:10775C0023FD182200210DEB020002F046FD082348
:10776C008DF818306C4B08936C4B0797CDE90936A4
:10777C0006A8238AADF82C3000F05CFF00283FF4FB
:10778C003AAF31466148FBF719FE34E7C288F62A56
:10779C0024D8D31E9B0723D0D31F9BB2013B594245
:1077AC0001F0030103F0030302F1FF3458BF4B4215
:1077BC00E31A9CB2494B4A485949C01AC008000404
:1077CC00234640F00400FBF75EF9474B214618882E
:1077DC00FFF706FE00283FF40EAF33E7F724E9E786
:1077EC001446E7E73D4B3E484E49C01AC00800041A
:1077FC0040F00400FBF73AF9002206A9A088CDE975
:10780C000622FFF7DFFDE5E7344B354C4649364D94
:10781C00E41AE408240444F004042046FBF726F997
:10782C000023ADF81A300223ADF8183006AA04ABC9
:10783C0042F6052128880793FFF7CAFD08B1FDF72A
:10784C0065FCBDF8102039492046FBF713F90023DD
:10785C001A4685212888FFF7AFFDBBE71F4B204D4B
:10786C003349ED1AED082D0445F004052846FBF7C5
:10787C00FDF862892F492846FBF7FCF822892E492E
:10788C002846FBF7F7F8A2892C492846FBF7F2F8B3
:10789C00E2892B4928461FE7104B11482949C01A89
:1078AC00C008237A00930004637AA27A40F00400A3
:1078BC00FBF7F3F89FE6094B09482349C01AC008A7
:1078CC00000440F00400FBF7D1F8002306A9A088BF
:1078DC00ADF81830FFF774FD7CE700BF14A3070068
:1078EC002CA3070020BE0700025800204FBE070043
:1078FC001DBD07002FBC07008091002086BF07002C
:10790C0039BC07007C9100204691002098A3070009
:10791C0067BC070086BC0700F97A07003D740700B6
:10792C00A6BC0700ECBC07005BBD070083BD0700CD
:10793C00A6BD0700CDBD0700E3BD0700F9BD0700DC
:10794C000BBE070084BE0700BEBE07005B4B0021C8
:10795C001888FFF749FD3DE78379002B3FF44BAEC8
:10796C00022B7FF448AE564D0289AB899A427FF4C4
:10797C0042AE837B012B7FF43EAE00230121CDE987
:10798C0006338DF81E10018AADF820104B4E418A3B
:10799C00ADF82210022200F114018DF81820099183
:1079AC00ADF8102003AF04AA298A3088ADF8123044
:1079BC000597FFF70DFDB04660B93846FFF7A4FCFC
:1079CC0040B940F2FD1306A93088ADF81C30FFF722
:1079DC0003FD10E6002306A9B8F80000ADF81C3032
:1079EC00FFF7FAFC014600287FF405AE18220DEBD8
:1079FC00020002F0FAFB237D324A8DF81830022B7C
:107A0C000795089224D0062B10D0012B10D12E4BA9
:107A1C001A882E4B1A80637DD4F816200A93012BFA
:107A2C000B9205D12A4801F083F801E0637D0A939B
:107A3C0006A800F0FFFD024600283FF4DCAD254807
:107A4C00254B26491B1ADB081B0443F0010043E6B7
:107A5C00204B21482249C01AC008000440F0040001
:107A6C00FBF704F8A27D637D43EA0223164A1380D8
:107A7C00164A1380DCE7174B17481A49C01AC0087E
:107A8C00000440F00400FAF7F1FF00231A461946EF
:107A9C00A088FFF793FC9DE600231A461946A088A0
:107AAC00FFF79CFC08B1FDF731FB0B48094B0E4965
:107ABC00C01AC008000440F0040038E60258002048
